:1000000000308A00E82800002C080739F7002C0C83
:10001000F800F80CF80C1F30F80578082E0784005B
:1000200083132F188317F801F80AF70A1828F80D18
:10003000F70B1728AD080319202878088004232817
:10004000F8097808800508002B08AC00AD01AF0165
:10005000AE0104202B08AC00AD01AF018030AE0032
:1000600004202B08AC000130AD00AF01AE0104202C
:100070002B08AC00AD01AF018030AE0004200800B9
:10008000AA012A08073C031C6A282908F7002A0845
:10009000F80003194F280310F70CF80B4B287708CA
:1000A0000139031D5528003056280130F70020087B
:1000B000AC007708AD00AF01AE0104202008AC0011
:1000C000AD01AF018030AE0004202108AB00242038
:1000D000AA0A412808000310A30C0310A40D08006D
:1000E00024082302031D7A2827082402031D7A28E6
:1000F0002808A50008002708840083132818831700
:100100000008FF3AAB0027088400831328188317E0
:100110002B0880000800A8012330A7007B20A8013D
:100120002430A7007B2008000310A30D0310A40CAB
:1001300008002608A700273084008313000803194D
:10014000AE280630F800F701F70BA428F80BA32817
:100150007B30F700F70BAA28800BA1282308A70003
:100160002408A8002808A90040202708A90040204A
:100170002208AB0024202508FC3E0318DD28043E9D
:10018000E0286B20A7010130A8007020DD288B201B
:1001900094208B20FF30A7000230A8007020DD28BB
:1001A0009420A7010330A8007020DD288B206B204D
:1001B0008B20FF30A700A80170208A110A120D2998
:1001C0000A108A100A118207C128C728D028D62809
:1001D00003081F3983004030A0004130A1004230A5
:1001E000A200831603170908C039890003131F12E0
:1001F0009F1200300317880083128701880189014C
:100200008313FF300313A300A400A501F830831665
:10021000880028308312A6009928831609296300D4
:04400E00E22CFF3F62
:00000001FF
;PIC16F887
;CRC=C3AA  CREATED="04-Oct-22 13:38"
