:1000000000308A00CD2800002A30840083130008C5
:10001000031917280630F800F701F70B0D28F80B25
:100020000C287B30F700F70B1328800B0A280800F8
:1000300030080739F700300CF800F80CF80C1F30C6
:10004000F805780832078400831333188317F80102
:10005000F80AF70A2C28F80DF70B2B28B10803191A
:100060003428780880043728F809780880050800C3
:10007000AF08031D3D2800303E280130F70020085E
:10008000B0007708B100B301B20118202008B00019
:10009000B101B3018030B20018202108B000013056
:1000A000B100B301B20118202108B000B101B301C1
:1000B0008030B20018202108B000B101B301B201B4
:1000C00018202108B000B101B3018030B20018201F
:1000D0002108B0000130B100B301B201182021089D
:1000E000B000B101B3018030B200182008002C0824
:1000F000AD00AE012E08073C031C8F282D080139E6
:10010000031D8528AF01382088280130AF00382032
:10011000AD0803198D280310AD0CAE0A7A2808002B
:1001200001302B02233E840083132A088000260816
:10013000AC0077202508AC0077202408AC0077209D
:100140002308AC0077202208B0000130B100B301D1
:10015000B20118202208B000B101B3018030B20012
:1001600018202208B000B101B301B2011820220802
:10017000B000B101B3018030B20018202208B000F5
:100180000130B100B301B20118202208B000B10162
:10019000B3018030B2001820080003081F39830023
:1001A0004030A0004130A1004230A2008316031766
:1001B0000908C039890003131F129F12003003176A
:1001C0008800831287018801890183130313A30127
:1001D000A401A501A601F83083168800FF30831220
:1001E000A700A800A9016430AA0004202708AA00DB
:1001F0000130AB0090202808AA000230AB0090200C
:100200006430AA0004202708AA000130AB00902027
:100210002808AA000230AB009020A908031D21295C
:100220000310A70C0310A80D28082702031D20297E
:10023000A808031D20290130A9006430AA00042069
:100240006229290B3729A709A8090310A70D031054
:10025000A80CA709A80928082702031D3629280F7A
:1002600036290230A9006430AA0004206229290836
:10027000023C031D4C290310A70D0310A80C2808ED
:100280002702031D4B29A808031D4B290330A90091
:100290006430AA00042062292908033C031D622956
:1002A000A709A8090310A70C0310A80DA709A809FE
:1002B00028082702031D6229280F6229A90164303A
:0802C000AA000420F3286300EA
:04400E00E22CFF3F62
:00000001FF
;PIC16F887
;CRC=AC79  CREATED="30-Sep-22 19:31"
