:1000000000308A00CD28000030080739F700300C96
:10001000F800F80CF80C1F30F80578083207840057
:10002000831333188317F801F80AF70A1828F80D14
:10003000F70B1728B1080319202878088004232813
:10004000F809780880050800AF08031D292800304A
:100050002A280130F7002008B0007708B100B3016A
:10006000B20104202008B000B101B3018030B20019
:1000700004202108B0000130B100B301B201042016
:100080002108B000B101B3018030B2000420210882
:10009000B000B101B301B20104202108B000B101E8
:1000A000B3018030B20004202108B0000130B1005B
:1000B000B301B20104202108B000B101B3018030C6
:1000C000B200042008002C08AD00AE012E08073C49
:1000D000031C7B282D080139031D7128AF01242042
:1000E00074280130AF002420AD08031979280310CB
:1000F000AD0CAE0A6628080001302B02233E8400B6
:1001000083132A0880002608AC0063202508AC0071
:1001100063202408AC0063202308AC00632022087D
:10012000B0000130B100B301B20104202208B000D8
:10013000B101B3018030B20004202208B000B10147
:10014000B301B20104202208B000B101B301803034
:10015000B20004202208B0000130B100B301B201A6
:1001600004202208B000B101B3018030B2000420A5
:1001700008002A308400831300080319CC280630B5
:10018000F800F701F70BC228F80BC1287B30F70005
:10019000F70BC828800BBF28080003081F3983000D
:1001A0004030A0004130A1004230A2008316031766
:1001B0000908C039890003131F129F12003003176A
:1001C0008800831287018801890183130313A30127
:1001D000A401A501A601F83083168800FF30831220
:1001E000A700A800A9012708AA000130AB007C20C5
:1001F0002808AA000230AB007C206430AA00B92095
:100200002708AA000130AB007C202808AA00023091
:10021000AB007C206430AA00B920A908031D1E2968
:100220000310A70C0310A80D28082702031D1D2981
:10023000A808031D1D290130A9003029290B3029E8
:10024000A709A8090310A70D0310A80CA709A8095E
:1002500028082702031D3029280F30290230A90061
:100260002908023C031D41290310A70D0310A80C07
:1002700028082702031D4129A808031D412903302E
:10028000A9002908033C031D5429A709A809031044
:10029000A70C0310A80DA709A80928082702031D09
:0C02A0005429280F5429A901F3286300F9
:04400E00E22CFF3F62
:00000001FF
;PIC16F887
;CRC=4511  CREATED="30-Sep-22 16:48"
