:1000000002308A00072A00000310260D2707F80097
:100010000800283084008313000803191C280630C8
:10002000F800F701F70B1228F80B11287B30F700C6
:10003000F70B1828800B0F280800831688018312FD
:10004000260888002108A700A70AA70303192C285F
:10005000FF30A800092025282008A8000920080052
:10006000A801270B35288030A8000310260C28078C
:10007000F8000800A501A301A201A308031D52284E
:100080002208073C031C52282508A6000130A700BF
:1000900004207808A5002508A6001D20A20A03193F
:1000A000A30A3D28A301A201A308031D6828220872
:1000B000073C031C68282508A600A7013020780803
:1000C000A5002508A6001D20A20A0319A30A54288A
:1000D0008A110A12302AA501A301A201A308031D57
:1000E00083282208073C031C83282508A60001302A
:1000F000A70030207808A5002508A6001D20A20A28
:100100000319A30A6E28A301A201A308031D9928BD
:100110002208073C031C99282508A600A7010420F3
:100120007808A5002508A6001D20A20A0319A30A25
:1001300085288A110A12312AA601A501A301A2016C
:10014000A308031DCF2822080F3C031CCF2803104F
:10015000250DA700260DA80001302707A5002808B7
:10016000A6000318A60A83168801831225088800B2
:10017000A801831686018312260886002108A7009D
:10018000A70AA7030319C828FF30A8000920C1281F
:100190002008A8000920A20A0319A30AA028A30185
:1001A000A201A308031DF72822080F3C031CF7280F
:1001B0000310A60CA50C831688018312250888005D
:1001C000A801831686018312260886002108A7004D
:1001D000A70AA7030319F028FF30A8000920E9287F
:1001E0002008A8000920A20A0319A30AD1288A110D
:1001F0000A12322AA601A501A301A201A308031D28
:100200002A2922080F3C031C2A290310260CA800C7
:10021000250CA700A50080302807A60083168801BA
:10022000831225088800A8018316860183122608F8
:1002300086002108A700A70AA70303192329FF3076
:10024000A80009201C292008A8000920A20A0319D7
:10025000A30AFE28A301A201A308031D5229220814
:100260000F3C031C52290310A50DA60D831688010F
:10027000831225088800A8018316860183122608A8
:1002800086002108A700A70AA70303194B29FF30FE
:10029000A800092044292008A8000920A20A03195F
:1002A000A30A2C298A110A12332AA501A601A30147
:1002B000A201A308031D83292208073C031C8329EC
:1002C0000310250C803EA5000310260D013EA6005C
:1002D00083168601831225088600831688018312FF
:1002E000260888002108A700A70AA70303197C296C
:1002F000FF30A800092075292008A8000920A20ABB
:100300000319A30A5929A301A201A308031DAB29BC
:100310002208073C031CAB290310A60C0310A50DF3
:1003200083168601831225088600831688018312AE
:10033000260888002108A700A70AA7030319A429F3
:10034000FF30A80009209D292008A8000920A20A42
:100350000319A30A85298A110A12342AA601013039
:10036000A500A301A201A308031DD92922080F3C5F
:10037000031CD9290310A50DA60D8316880183122D
:1003800025088800A80183168601831226088600A6
:100390002108A700A70AA7030319D229FF30A80044
:1003A0000920CB292008A8000920A20A0319A30AC2
:1003B000B3298030A600A501A301A201A308031D53
:1003C000042A22080F3C031C042A0310A60CA50CC7
:1003D00083168801831225088800A80183168601E8
:1003E0008312260886002108A700A70AA70303197D
:1003F000FD29FF30A8000920F6292008A8000920BF
:10040000A20A0319A30ADE298A110A12352A03084F
:100410001F398300A1016430A000FF30A4008316BF
:1004200003170908C039890003131F129F120030F7
:100430000317880083128701880189018313003024
:10044000831603138800860087008312A400831696
:1004500086018312860183168801831288013A2857
:0E0460006B289C28FA285529AE292F2A630004
:04400E00E22CFF3F62
:00000001FF
;PIC16F887
;CRC=FE28  CREATED="04-Oct-22 17:38"
